{
	"data": {
		"bytecode": {
			"linkReferences": {},
			"object": "6080604052348015600e575f80fd5b50611adb8061001c5f395ff3fe608060405234801561000f575f80fd5b50600436106100a6575f3560e01c8063532561351161006f57806353256135146101745780635ffc6ceb146101925780637c9cd2bc146101ae578063c3ad5ecb146101ca578063e8d857b0146101fa578063f6d148d51461022d576100a6565b806250a719146100aa57806306d1bdb4146100da5780631d86e9041461010a57806322b13ac8146101265780632e06f34714610144575b5f80fd5b6100c460048036038101906100bf9190610f96565b61025d565b6040516100d19190610fee565b60405180910390f35b6100f460048036038101906100ef9190610f96565b61030e565b6040516101019190610fee565b60405180910390f35b610124600480360381019061011f9190611007565b610338565b005b61012e6104e7565b60405161013b9190611041565b60405180910390f35b61015e6004803603810190610159919061105a565b6104ec565b60405161016b9190611041565b60405180910390f35b61017c610517565b6040516101899190611241565b60405180910390f35b6101ac60048036038101906101a79190611007565b6106d8565b005b6101c860048036038101906101c3919061138d565b610889565b005b6101e460048036038101906101df9190611007565b6109bc565b6040516101f19190611434565b60405180910390f35b610214600480360381019061020f9190611007565b610b2e565b60405161022494939291906114ab565b60405180910390f35b610247600480360381019061024291906114f5565b610bff565b6040516102549190611241565b60405180910390f35b5f808311801561026e57505f548311155b6102ad576040517f08c379a00000000000000000000000000000000000000000000000000000000081526004016102a49061156a565b60405180910390fd5b60035f8481526020019081526020015f205f8373ffffffffffffffffffffffffffffffffffffffff1673ffffffffffffffffffffffffffffffffffffffff1681526020019081526020015f205f9054906101000a900460ff16905092915050565b6003602052815f5260405f20602052805f5260405f205f915091509054906101000a900460ff1681565b5f8111801561034857505f548111155b610387576040517f08c379a000000000000000000000000000000000000000000000000000000000815260040161037e9061156a565b60405180910390fd5b60035f8281526020019081526020015f205f3373ffffffffffffffffffffffffffffffffffffffff1673ffffffffffffffffffffffffffffffffffffffff1681526020019081526020015f205f9054906101000a900460ff1661041f576040517f08c379a0000000000000000000000000000000000000000000000000000000008152600401610416906115d2565b60405180910390fd5b60015f8281526020019081526020015f206003015f8154809291906104439061161d565b91905055505f60035f8381526020019081526020015f205f3373ffffffffffffffffffffffffffffffffffffffff1673ffffffffffffffffffffffffffffffffffffffff1681526020019081526020015f205f6101000a81548160ff0219169083151502179055507fe384d9e8ea85b1487c2643f5ca481bbd63b577e323bd7bc830b7e7865567242781336040516104dc929190611644565b60405180910390a150565b5f5481565b6002602052815f5260405f208181548110610505575f80fd5b905f5260205f20015f91509150505481565b60605f805467ffffffffffffffff81111561053557610534611269565b5b60405190808252806020026020018201604052801561056e57816020015b61055b610ebd565b8152602001906001900390816105535790505b5090505f600190505b5f5481116106d05760015f8281526020019081526020015f206040518060800160405290815f8201548152602001600182015f9054906101000a900473ffffffffffffffffffffffffffffffffffffffff1673ffffffffffffffffffffffffffffffffffffffff1673ffffffffffffffffffffffffffffffffffffffff16815260200160028201805461060990611698565b80601f016020809104026020016040519081016040528092919081815260200182805461063590611698565b80156106805780601f1061065757610100808354040283529160200191610680565b820191905f5260205f20905b81548152906001019060200180831161066357829003601f168201915b50505050508152602001600382015481525050826001836106a191906116c8565b815181106106b2576106b16116fb565b5b602002602001018190525080806106c890611728565b915050610577565b508091505090565b5f811180156106e857505f548111155b610727576040517f08c379a000000000000000000000000000000000000000000000000000000000815260040161071e9061156a565b60405180910390fd5b60035f8281526020019081526020015f205f3373ffffffffffffffffffffffffffffffffffffffff1673ffffffffffffffffffffffffffffffffffffffff1681526020019081526020015f205f9054906101000a900460ff16156107c0576040517f08c379a00000000000000000000000000000000000000000000000000000000081526004016107b7906117df565b60405180910390fd5b60015f8281526020019081526020015f206003015f8154809291906107e490611728565b9190505550600160035f8381526020019081526020015f205f3373ffffffffffffffffffffffffffffffffffffffff1673ffffffffffffffffffffffffffffffffffffffff1681526020019081526020015f205f6101000a81548160ff0219169083151502179055507f33b8f513b5466d89f2a96589e6e48f7682fddc5debd283e6bb921ed3bba52b78813360405161087e929190611644565b60405180910390a150565b5f8081548092919061089a90611728565b91905055505f60015f805481526020019081526020015f2090505f54815f018190555033816001015f6101000a81548173ffffffffffffffffffffffffffffffffffffffff021916908373ffffffffffffffffffffffffffffffffffffffff16021790555081816002019081610910919061199a565b505f816003018190555060025f3373ffffffffffffffffffffffffffffffffffffffff1673ffffffffffffffffffffffffffffffffffffffff1681526020019081526020015f205f54908060018154018082558091505060019003905f5260205f20015f90919091909150557f5b04dbcff53dfd77771f59e7ba56ec837ac5325729cf7f1dd0ed4aef082a6aab5f5433846040516109b093929190611a69565b60405180910390a15050565b6109c4610ebd565b5f821180156109d457505f548211155b610a13576040517f08c379a0000000000000000000000000000000000000000000000000000000008152600401610a0a9061156a565b60405180910390fd5b60015f8381526020019081526020015f206040518060800160405290815f8201548152602001600182015f9054906101000a900473ffffffffffffffffffffffffffffffffffffffff1673ffffffffffffffffffffffffffffffffffffffff1673ffffffffffffffffffffffffffffffffffffffff168152602001600282018054610a9d90611698565b80601f0160208091040260200160405190810160405280929190818152602001828054610ac990611698565b8015610b145780601f10610aeb57610100808354040283529160200191610b14565b820191905f5260205f20905b815481529060010190602001808311610af757829003601f168201915b505050505081526020016003820154815250509050919050565b6001602052805f5260405f205f91509050805f015490806001015f9054906101000a900473ffffffffffffffffffffffffffffffffffffffff1690806002018054610b7890611698565b80601f0160208091040260200160405190810160405280929190818152602001828054610ba490611698565b8015610bef5780601f10610bc657610100808354040283529160200191610bef565b820191905f5260205f20905b815481529060010190602001808311610bd257829003601f168201915b5050505050908060030154905084565b60605f805b5f548111610c94578373ffffffffffffffffffffffffffffffffffffffff1660015f8381526020019081526020015f206001015f9054906101000a900473ffffffffffffffffffffffffffffffffffffffff1673ffffffffffffffffffffffffffffffffffffffff1603610c81578180610c7d90611728565b9250505b8080610c8c90611728565b915050610c04565b505f805467ffffffffffffffff811115610cb157610cb0611269565b5b604051908082528060200260200182016040528015610cea57816020015b610cd7610ebd565b815260200190600190039081610ccf5790505b5090505f805b838111610eb1578573ffffffffffffffffffffffffffffffffffffffff1660015f8381526020019081526020015f206001015f9054906101000a900473ffffffffffffffffffffffffffffffffffffffff1673ffffffffffffffffffffffffffffffffffffffff1603610e9e5760015f8281526020019081526020015f206040518060800160405290815f8201548152602001600182015f9054906101000a900473ffffffffffffffffffffffffffffffffffffffff1673ffffffffffffffffffffffffffffffffffffffff1673ffffffffffffffffffffffffffffffffffffffff168152602001600282018054610de790611698565b80601f0160208091040260200160405190810160405280929190818152602001828054610e1390611698565b8015610e5e5780601f10610e3557610100808354040283529160200191610e5e565b820191905f5260205f20905b815481529060010190602001808311610e4157829003601f168201915b50505050508152602001600382015481525050838381518110610e8457610e836116fb565b5b60200260200101819052508180610e9a90611728565b9250505b8080610ea990611728565b915050610cf0565b50819350505050919050565b60405180608001604052805f81526020015f73ffffffffffffffffffffffffffffffffffffffff168152602001606081526020015f81525090565b5f604051905090565b5f80fd5b5f80fd5b5f819050919050565b610f1b81610f09565b8114610f25575f80fd5b50565b5f81359050610f3681610f12565b92915050565b5f73ffffffffffffffffffffffffffffffffffffffff82169050919050565b5f610f6582610f3c565b9050919050565b610f7581610f5b565b8114610f7f575f80fd5b50565b5f81359050610f9081610f6c565b92915050565b5f8060408385031215610fac57610fab610f01565b5b5f610fb985828601610f28565b9250506020610fca85828601610f82565b9150509250929050565b5f8115159050919050565b610fe881610fd4565b82525050565b5f6020820190506110015f830184610fdf565b92915050565b5f6020828403121561101c5761101b610f01565b5b5f61102984828501610f28565b91505092915050565b61103b81610f09565b82525050565b5f6020820190506110545f830184611032565b92915050565b5f80604083850312156110705761106f610f01565b5b5f61107d85828601610f82565b925050602061108e85828601610f28565b9150509250929050565b5f81519050919050565b5f82825260208201905092915050565b5f819050602082019050919050565b6110ca81610f09565b82525050565b6110d981610f5b565b82525050565b5f81519050919050565b5f82825260208201905092915050565b8281835e5f83830152505050565b5f601f19601f8301169050919050565b5f611121826110df565b61112b81856110e9565b935061113b8185602086016110f9565b61114481611107565b840191505092915050565b5f608083015f8301516111645f8601826110c1565b50602083015161117760208601826110d0565b506040830151848203604086015261118f8282611117565b91505060608301516111a460608601826110c1565b508091505092915050565b5f6111ba838361114f565b905092915050565b5f602082019050919050565b5f6111d882611098565b6111e281856110a2565b9350836020820285016111f4856110b2565b805f5b8581101561122f578484038952815161121085826111af565b945061121b836111c2565b925060208a019950506001810190506111f7565b50829750879550505050505092915050565b5f6020820190508181035f83015261125981846111ce565b905092915050565b5f80fd5b5f80fd5b7f4e487b71000000000000000000000000000000000000000000000000000000005f52604160045260245ffd5b61129f82611107565b810181811067ffffffffffffffff821117156112be576112bd611269565b5b80604052505050565b5f6112d0610ef8565b90506112dc8282611296565b919050565b5f67ffffffffffffffff8211156112fb576112fa611269565b5b61130482611107565b9050602081019050919050565b828183375f83830152505050565b5f61133161132c846112e1565b6112c7565b90508281526020810184848401111561134d5761134c611265565b5b611358848285611311565b509392505050565b5f82601f83011261137457611373611261565b5b813561138484826020860161131f565b91505092915050565b5f602082840312156113a2576113a1610f01565b5b5f82013567ffffffffffffffff8111156113bf576113be610f05565b5b6113cb84828501611360565b91505092915050565b5f608083015f8301516113e95f8601826110c1565b5060208301516113fc60208601826110d0565b50604083015184820360408601526114148282611117565b915050606083015161142960608601826110c1565b508091505092915050565b5f6020820190508181035f83015261144c81846113d4565b905092915050565b61145d81610f5b565b82525050565b5f82825260208201905092915050565b5f61147d826110df565b6114878185611463565b93506114978185602086016110f9565b6114a081611107565b840191505092915050565b5f6080820190506114be5f830187611032565b6114cb6020830186611454565b81810360408301526114dd8185611473565b90506114ec6060830184611032565b95945050505050565b5f6020828403121561150a57611509610f01565b5b5f61151784828501610f82565b91505092915050565b7f496e76616c6964207477656574204944000000000000000000000000000000005f82015250565b5f611554601083611463565b915061155f82611520565b602082019050919050565b5f6020820190508181035f83015261158181611548565b9050919050565b7f596f752068617665206e6f74206c696b656420746869732074776565742e00005f82015250565b5f6115bc601e83611463565b91506115c782611588565b602082019050919050565b5f6020820190508181035f8301526115e9816115b0565b9050919050565b7f4e487b71000000000000000000000000000000000000000000000000000000005f52601160045260245ffd5b5f61162782610f09565b91505f8203611639576116386115f0565b5b600182039050919050565b5f6040820190506116575f830185611032565b6116646020830184611454565b9392505050565b7f4e487b71000000000000000000000000000000000000000000000000000000005f52602260045260245ffd5b5f60028204905060018216806116af57607f821691505b6020821081036116c2576116c161166b565b5b50919050565b5f6116d282610f09565b91506116dd83610f09565b92508282039050818111156116f5576116f46115f0565b5b92915050565b7f4e487b71000000000000000000000000000000000000000000000000000000005f52603260045260245ffd5b5f61173282610f09565b91507fffffffffffffffffffffffffffffffffffffffffffffffffffffffffffffffff8203611764576117636115f0565b5b600182019050919050565b7f596f75206861766520616c7265616479206c696b6564207468697320747765655f8201527f7400000000000000000000000000000000000000000000000000000000000000602082015250565b5f6117c9602183611463565b91506117d48261176f565b604082019050919050565b5f6020820190508181035f8301526117f6816117bd565b9050919050565b5f819050815f5260205f209050919050565b5f6020601f8301049050919050565b5f82821b905092915050565b5f600883026118597fffffffffffffffffffffffffffffffffffffffffffffffffffffffffffffffff8261181e565b611863868361181e565b95508019841693508086168417925050509392505050565b5f819050919050565b5f61189e61189961189484610f09565b61187b565b610f09565b9050919050565b5f819050919050565b6118b783611884565b6118cb6118c3826118a5565b84845461182a565b825550505050565b5f90565b6118df6118d3565b6118ea8184846118ae565b505050565b5b8181101561190d576119025f826118d7565b6001810190506118f0565b5050565b601f82111561195257611923816117fd565b61192c8461180f565b8101602085101561193b578190505b61194f6119478561180f565b8301826118ef565b50505b505050565b5f82821c905092915050565b5f6119725f1984600802611957565b1980831691505092915050565b5f61198a8383611963565b9150826002028217905092915050565b6119a3826110df565b67ffffffffffffffff8111156119bc576119bb611269565b5b6119c68254611698565b6119d1828285611911565b5f60209050601f831160018114611a02575f84156119f0578287015190505b6119fa858261197f565b865550611a61565b601f198416611a10866117fd565b5f5b82811015611a3757848901518255600182019150602085019450602081019050611a12565b86831015611a545784890151611a50601f891682611963565b8355505b6001600288020188555050505b505050505050565b5f606082019050611a7c5f830186611032565b611a896020830185611454565b8181036040830152611a9b8184611473565b905094935050505056fea26469706673582212201c59e248c17046eab7f5061c2859d360b0d3088250deef05fe5262a18c8d6d7e64736f6c634300081a0033",
			"opcodes": "PUSH1 0x80 PUSH1 0x40 MSTORE CALLVALUE DUP1 ISZERO PUSH1 0xE JUMPI PUSH0 DUP1 REVERT JUMPDEST POP PUSH2 0x1ADB DUP1 PUSH2 0x1C PUSH0 CODECOPY PUSH0 RETURN INVALID PUSH1 0x80 PUSH1 0x40 MSTORE CALLVALUE DUP1 ISZERO PUSH2 0xF JUMPI PUSH0 DUP1 REVERT JUMPDEST POP PUSH1 0x4 CALLDATASIZE LT PUSH2 0xA6 JUMPI PUSH0 CALLDATALOAD PUSH1 0xE0 SHR DUP1 PUSH4 0x53256135 GT PUSH2 0x6F JUMPI DUP1 PUSH4 0x53256135 EQ PUSH2 0x174 JUMPI DUP1 PUSH4 0x5FFC6CEB EQ PUSH2 0x192 JUMPI DUP1 PUSH4 0x7C9CD2BC EQ PUSH2 0x1AE JUMPI DUP1 PUSH4 0xC3AD5ECB EQ PUSH2 0x1CA JUMPI DUP1 PUSH4 0xE8D857B0 EQ PUSH2 0x1FA JUMPI DUP1 PUSH4 0xF6D148D5 EQ PUSH2 0x22D JUMPI PUSH2 0xA6 JUMP JUMPDEST DUP1 PUSH3 0x50A719 EQ PUSH2 0xAA JUMPI DUP1 PUSH4 0x6D1BDB4 EQ PUSH2 0xDA JUMPI DUP1 PUSH4 0x1D86E904 EQ PUSH2 0x10A JUMPI DUP1 PUSH4 0x22B13AC8 EQ PUSH2 0x126 JUMPI DUP1 PUSH4 0x2E06F347 EQ PUSH2 0x144 JUMPI JUMPDEST PUSH0 DUP1 REVERT JUMPDEST PUSH2 0xC4 PUSH1 0x4 DUP1 CALLDATASIZE SUB DUP2 ADD SWAP1 PUSH2 0xBF SWAP2 SWAP1 PUSH2 0xF96 JUMP JUMPDEST PUSH2 0x25D JUMP JUMPDEST PUSH1 0x40 MLOAD PUSH2 0xD1 SWAP2 SWAP1 PUSH2 0xFEE JUMP JUMPDEST PUSH1 0x40 MLOAD DUP1 SWAP2 SUB SWAP1 RETURN JUMPDEST PUSH2 0xF4 PUSH1 0x4 DUP1 CALLDATASIZE SUB DUP2 ADD SWAP1 PUSH2 0xEF SWAP2 SWAP1 PUSH2 0xF96 JUMP JUMPDEST PUSH2 0x30E JUMP JUMPDEST PUSH1 0x40 MLOAD PUSH2 0x101 SWAP2 SWAP1 PUSH2 0xFEE JUMP JUMPDEST PUSH1 0x40 MLOAD DUP1 SWAP2 SUB SWAP1 RETURN JUMPDEST PUSH2 0x124 PUSH1 0x4 DUP1 CALLDATASIZE SUB DUP2 ADD SWAP1 PUSH2 0x11F SWAP2 SWAP1 PUSH2 0x1007 JUMP JUMPDEST PUSH2 0x338 JUMP JUMPDEST STOP JUMPDEST PUSH2 0x12E PUSH2 0x4E7 JUMP JUMPDEST PUSH1 0x40 MLOAD PUSH2 0x13B SWAP2 SWAP1 PUSH2 0x1041 JUMP JUMPDEST PUSH1 0x40 MLOAD DUP1 SWAP2 SUB SWAP1 RETURN JUMPDEST PUSH2 0x15E PUSH1 0x4 DUP1 CALLDATASIZE SUB DUP2 ADD SWAP1 PUSH2 0x159 SWAP2 SWAP1 PUSH2 0x105A JUMP JUMPDEST PUSH2 0x4EC JUMP JUMPDEST PUSH1 0x40 MLOAD PUSH2 0x16B SWAP2 SWAP1 PUSH2 0x1041 JUMP JUMPDEST PUSH1 0x40 MLOAD DUP1 SWAP2 SUB SWAP1 RETURN JUMPDEST PUSH2 0x17C PUSH2 0x517 JUMP JUMPDEST PUSH1 0x40 MLOAD PUSH2 0x189 SWAP2 SWAP1 PUSH2 0x1241 JUMP JUMPDEST PUSH1 0x40 MLOAD DUP1 SWAP2 SUB SWAP1 RETURN JUMPDEST PUSH2 0x1AC PUSH1 0x4 DUP1 CALLDATASIZE SUB DUP2 ADD SWAP1 PUSH2 0x1A7 SWAP2 SWAP1 PUSH2 0x1007 JUMP JUMPDEST PUSH2 0x6D8 JUMP JUMPDEST STOP JUMPDEST PUSH2 0x1C8 PUSH1 0x4 DUP1 CALLDATASIZE SUB DUP2 ADD SWAP1 PUSH2 0x1C3 SWAP2 SWAP1 PUSH2 0x138D JUMP JUMPDEST PUSH2 0x889 JUMP JUMPDEST STOP JUMPDEST PUSH2 0x1E4 PUSH1 0x4 DUP1 CALLDATASIZE SUB DUP2 ADD SWAP1 PUSH2 0x1DF SWAP2 SWAP1 PUSH2 0x1007 JUMP JUMPDEST PUSH2 0x9BC JUMP JUMPDEST PUSH1 0x40 MLOAD PUSH2 0x1F1 SWAP2 SWAP1 PUSH2 0x1434 JUMP JUMPDEST PUSH1 0x40 MLOAD DUP1 SWAP2 SUB SWAP1 RETURN JUMPDEST PUSH2 0x214 PUSH1 0x4 DUP1 CALLDATASIZE SUB DUP2 ADD SWAP1 PUSH2 0x20F SWAP2 SWAP1 PUSH2 0x1007 JUMP JUMPDEST PUSH2 0xB2E JUMP JUMPDEST PUSH1 0x40 MLOAD PUSH2 0x224 SWAP5 SWAP4 SWAP3 SWAP2 SWAP1 PUSH2 0x14AB JUMP JUMPDEST PUSH1 0x40 MLOAD DUP1 SWAP2 SUB SWAP1 RETURN JUMPDEST PUSH2 0x247 PUSH1 0x4 DUP1 CALLDATASIZE SUB DUP2 ADD SWAP1 PUSH2 0x242 SWAP2 SWAP1 PUSH2 0x14F5 JUMP JUMPDEST PUSH2 0xBFF JUMP JUMPDEST PUSH1 0x40 MLOAD PUSH2 0x254 SWAP2 SWAP1 PUSH2 0x1241 JUMP JUMPDEST PUSH1 0x40 MLOAD DUP1 SWAP2 SUB SWAP1 RETURN JUMPDEST PUSH0 DUP1 DUP4 GT DUP1 ISZERO PUSH2 0x26E JUMPI POP PUSH0 SLOAD DUP4 GT ISZERO JUMPDEST PUSH2 0x2AD JUMPI PUSH1 0x40 MLOAD PUSH32 0x8C379A000000000000000000000000000000000000000000000000000000000 DUP2 MSTORE PUSH1 0x4 ADD PUSH2 0x2A4 SWAP1 PUSH2 0x156A JUMP JUMPDEST PUSH1 0x40 MLOAD DUP1 SWAP2 SUB SWAP1 REVERT JUMPDEST PUSH1 0x3 PUSH0 DUP5 DUP2 MSTORE PUSH1 0x20 ADD SWAP1 DUP2 MSTORE PUSH1 0x20 ADD PUSH0 KECCAK256 PUSH0 DUP4 PUSH20 0xFFFFFFFFFFFFFFFFFFFFFFFFFFFFFFFFFFFFFFFF AND PUSH20 0xFFFFFFFFFFFFFFFFFFFFFFFFFFFFFFFFFFFFFFFF AND DUP2 MSTORE PUSH1 0x20 ADD SWAP1 DUP2 MSTORE PUSH1 0x20 ADD PUSH0 KECCAK256 PUSH0 SWAP1 SLOAD SWAP1 PUSH2 0x100 EXP SWAP1 DIV PUSH1 0xFF AND SWAP1 POP SWAP3 SWAP2 POP POP JUMP JUMPDEST PUSH1 0x3 PUSH1 0x20 MSTORE DUP2 PUSH0 MSTORE PUSH1 0x40 PUSH0 KECCAK256 PUSH1 0x20 MSTORE DUP1 PUSH0 MSTORE PUSH1 0x40 PUSH0 KECCAK256 PUSH0 SWAP2 POP SWAP2 POP SWAP1 SLOAD SWAP1 PUSH2 0x100 EXP SWAP1 DIV PUSH1 0xFF AND DUP2 JUMP JUMPDEST PUSH0 DUP2 GT DUP1 ISZERO PUSH2 0x348 JUMPI POP PUSH0 SLOAD DUP2 GT ISZERO JUMPDEST PUSH2 0x387 JUMPI PUSH1 0x40 MLOAD PUSH32 0x8C379A000000000000000000000000000000000000000000000000000000000 DUP2 MSTORE PUSH1 0x4 ADD PUSH2 0x37E SWAP1 PUSH2 0x156A JUMP JUMPDEST PUSH1 0x40 MLOAD DUP1 SWAP2 SUB SWAP1 REVERT JUMPDEST PUSH1 0x3 PUSH0 DUP3 DUP2 MSTORE PUSH1 0x20 ADD SWAP1 DUP2 MSTORE PUSH1 0x20 ADD PUSH0 KECCAK256 PUSH0 CALLER PUSH20 0xFFFFFFFFFFFFFFFFFFFFFFFFFFFFFFFFFFFFFFFF AND PUSH20 0xFFFFFFFFFFFFFFFFFFFFFFFFFFFFFFFFFFFFFFFF AND DUP2 MSTORE PUSH1 0x20 ADD SWAP1 DUP2 MSTORE PUSH1 0x20 ADD PUSH0 KECCAK256 PUSH0 SWAP1 SLOAD SWAP1 PUSH2 0x100 EXP SWAP1 DIV PUSH1 0xFF AND PUSH2 0x41F JUMPI PUSH1 0x40 MLOAD PUSH32 0x8C379A000000000000000000000000000000000000000000000000000000000 DUP2 MSTORE PUSH1 0x4 ADD PUSH2 0x416 SWAP1 PUSH2 0x15D2 JUMP JUMPDEST PUSH1 0x40 MLOAD DUP1 SWAP2 SUB SWAP1 REVERT JUMPDEST PUSH1 0x1 PUSH0 DUP3 DUP2 MSTORE PUSH1 0x20 ADD SWAP1 DUP2 MSTORE PUSH1 0x20 ADD PUSH0 KECCAK256 PUSH1 0x3 ADD PUSH0 DUP2 SLOAD DUP1 SWAP3 SWAP2 SWAP1 PUSH2 0x443 SWAP1 PUSH2 0x161D JUMP JUMPDEST SWAP2 SWAP1 POP SSTORE POP PUSH0 PUSH1 0x3 PUSH0 DUP4 DUP2 MSTORE PUSH1 0x20 ADD SWAP1 DUP2 MSTORE PUSH1 0x20 ADD PUSH0 KECCAK256 PUSH0 CALLER PUSH20 0xFFFFFFFFFFFFFFFFFFFFFFFFFFFFFFFFFFFFFFFF AND PUSH20 0xFFFFFFFFFFFFFFFFFFFFFFFFFFFFFFFFFFFFFFFF AND DUP2 MSTORE PUSH1 0x20 ADD SWAP1 DUP2 MSTORE PUSH1 0x20 ADD PUSH0 KECCAK256 PUSH0 PUSH2 0x100 EXP DUP2 SLOAD DUP2 PUSH1 0xFF MUL NOT AND SWAP1 DUP4 ISZERO ISZERO MUL OR SWAP1 SSTORE POP PUSH32 0xE384D9E8EA85B1487C2643F5CA481BBD63B577E323BD7BC830B7E78655672427 DUP2 CALLER PUSH1 0x40 MLOAD PUSH2 0x4DC SWAP3 SWAP2 SWAP1 PUSH2 0x1644 JUMP JUMPDEST PUSH1 0x40 MLOAD DUP1 SWAP2 SUB SWAP1 LOG1 POP JUMP JUMPDEST PUSH0 SLOAD DUP2 JUMP JUMPDEST PUSH1 0x2 PUSH1 0x20 MSTORE DUP2 PUSH0 MSTORE PUSH1 0x40 PUSH0 KECCAK256 DUP2 DUP2 SLOAD DUP2 LT PUSH2 0x505 JUMPI PUSH0 DUP1 REVERT JUMPDEST SWAP1 PUSH0 MSTORE PUSH1 0x20 PUSH0 KECCAK256 ADD PUSH0 SWAP2 POP SWAP2 POP POP SLOAD DUP2 JUMP JUMPDEST PUSH1 0x60 PUSH0 DUP1 SLOAD PUSH8 0xFFFFFFFFFFFFFFFF DUP2 GT ISZERO PUSH2 0x535 JUMPI PUSH2 0x534 PUSH2 0x1269 JUMP JUMPDEST JUMPDEST PUSH1 0x40 MLOAD SWAP1 DUP1 DUP3 MSTORE DUP1 PUSH1 0x20 MUL PUSH1 0x20 ADD DUP3 ADD PUSH1 0x40 MSTORE DUP1 ISZERO PUSH2 0x56E JUMPI DUP2 PUSH1 0x20 ADD JUMPDEST PUSH2 0x55B PUSH2 0xEBD JUMP JUMPDEST DUP2 MSTORE PUSH1 0x20 ADD SWAP1 PUSH1 0x1 SWAP1 SUB SWAP1 DUP2 PUSH2 0x553 JUMPI SWAP1 POP JUMPDEST POP SWAP1 POP PUSH0 PUSH1 0x1 SWAP1 POP JUMPDEST PUSH0 SLOAD DUP2 GT PUSH2 0x6D0 JUMPI PUSH1 0x1 PUSH0 DUP3 DUP2 MSTORE PUSH1 0x20 ADD SWAP1 DUP2 MSTORE PUSH1 0x20 ADD PUSH0 KECCAK256 PUSH1 0x40 MLOAD DUP1 PUSH1 0x80 ADD PUSH1 0x40 MSTORE SWAP1 DUP2 PUSH0 DUP3 ADD SLOAD DUP2 MSTORE PUSH1 0x20 ADD PUSH1 0x1 DUP3 ADD PUSH0 SWAP1 SLOAD SWAP1 PUSH2 0x100 EXP SWAP1 DIV PUSH20 0xFFFFFFFFFFFFFFFFFFFFFFFFFFFFFFFFFFFFFFFF AND PUSH20 0xFFFFFFFFFFFFFFFFFFFFFFFFFFFFFFFFFFFFFFFF AND PUSH20 0xFFFFFFFFFFFFFFFFFFFFFFFFFFFFFFFFFFFFFFFF AND DUP2 MSTORE PUSH1 0x20 ADD PUSH1 0x2 DUP3 ADD DUP1 SLOAD PUSH2 0x609 SWAP1 PUSH2 0x1698 JUMP JUMPDEST DUP1 PUSH1 0x1F ADD PUSH1 0x20 DUP1 SWAP2 DIV MUL PUSH1 0x20 ADD PUSH1 0x40 MLOAD SWAP1 DUP2 ADD PUSH1 0x40 MSTORE DUP1 SWAP3 SWAP2 SWAP1 DUP2 DUP2 MSTORE PUSH1 0x20 ADD DUP3 DUP1 SLOAD PUSH2 0x635 SWAP1 PUSH2 0x1698 JUMP JUMPDEST DUP1 ISZERO PUSH2 0x680 JUMPI DUP1 PUSH1 0x1F LT PUSH2 0x657 JUMPI PUSH2 0x100 DUP1 DUP4 SLOAD DIV MUL DUP4 MSTORE SWAP2 PUSH1 0x20 ADD SWAP2 PUSH2 0x680 JUMP JUMPDEST DUP3 ADD SWAP2 SWAP1 PUSH0 MSTORE PUSH1 0x20 PUSH0 KECCAK256 SWAP1 JUMPDEST DUP2 SLOAD DUP2 MSTORE SWAP1 PUSH1 0x1 ADD SWAP1 PUSH1 0x20 ADD DUP1 DUP4 GT PUSH2 0x663 JUMPI DUP3 SWAP1 SUB PUSH1 0x1F AND DUP3 ADD SWAP2 JUMPDEST POP POP POP POP POP DUP2 MSTORE PUSH1 0x20 ADD PUSH1 0x3 DUP3 ADD SLOAD DUP2 MSTORE POP POP DUP3 PUSH1 0x1 DUP4 PUSH2 0x6A1 SWAP2 SWAP1 PUSH2 0x16C8 JUMP JUMPDEST DUP2 MLOAD DUP2 LT PUSH2 0x6B2 JUMPI PUSH2 0x6B1 PUSH2 0x16FB JUMP JUMPDEST JUMPDEST PUSH1 0x20 MUL PUSH1 0x20 ADD ADD DUP2 SWAP1 MSTORE POP DUP1 DUP1 PUSH2 0x6C8 SWAP1 PUSH2 0x1728 JUMP JUMPDEST SWAP2 POP POP PUSH2 0x577 JUMP JUMPDEST POP DUP1 SWAP2 POP POP SWAP1 JUMP JUMPDEST PUSH0 DUP2 GT DUP1 ISZERO PUSH2 0x6E8 JUMPI POP PUSH0 SLOAD DUP2 GT ISZERO JUMPDEST PUSH2 0x727 JUMPI PUSH1 0x40 MLOAD PUSH32 0x8C379A000000000000000000000000000000000000000000000000000000000 DUP2 MSTORE PUSH1 0x4 ADD PUSH2 0x71E SWAP1 PUSH2 0x156A JUMP JUMPDEST PUSH1 0x40 MLOAD DUP1 SWAP2 SUB SWAP1 REVERT JUMPDEST PUSH1 0x3 PUSH0 DUP3 DUP2 MSTORE PUSH1 0x20 ADD SWAP1 DUP2 MSTORE PUSH1 0x20 ADD PUSH0 KECCAK256 PUSH0 CALLER PUSH20 0xFFFFFFFFFFFFFFFFFFFFFFFFFFFFFFFFFFFFFFFF AND PUSH20 0xFFFFFFFFFFFFFFFFFFFFFFFFFFFFFFFFFFFFFFFF AND DUP2 MSTORE PUSH1 0x20 ADD SWAP1 DUP2 MSTORE PUSH1 0x20 ADD PUSH0 KECCAK256 PUSH0 SWAP1 SLOAD SWAP1 PUSH2 0x100 EXP SWAP1 DIV PUSH1 0xFF AND ISZERO PUSH2 0x7C0 JUMPI PUSH1 0x40 MLOAD PUSH32 0x8C379A000000000000000000000000000000000000000000000000000000000 DUP2 MSTORE PUSH1 0x4 ADD PUSH2 0x7B7 SWAP1 PUSH2 0x17DF JUMP JUMPDEST PUSH1 0x40 MLOAD DUP1 SWAP2 SUB SWAP1 REVERT JUMPDEST PUSH1 0x1 PUSH0 DUP3 DUP2 MSTORE PUSH1 0x20 ADD SWAP1 DUP2 MSTORE PUSH1 0x20 ADD PUSH0 KECCAK256 PUSH1 0x3 ADD PUSH0 DUP2 SLOAD DUP1 SWAP3 SWAP2 SWAP1 PUSH2 0x7E4 SWAP1 PUSH2 0x1728 JUMP JUMPDEST SWAP2 SWAP1 POP SSTORE POP PUSH1 0x1 PUSH1 0x3 PUSH0 DUP4 DUP2 MSTORE PUSH1 0x20 ADD SWAP1 DUP2 MSTORE PUSH1 0x20 ADD PUSH0 KECCAK256 PUSH0 CALLER PUSH20 0xFFFFFFFFFFFFFFFFFFFFFFFFFFFFFFFFFFFFFFFF AND PUSH20 0xFFFFFFFFFFFFFFFFFFFFFFFFFFFFFFFFFFFFFFFF AND DUP2 MSTORE PUSH1 0x20 ADD SWAP1 DUP2 MSTORE PUSH1 0x20 ADD PUSH0 KECCAK256 PUSH0 PUSH2 0x100 EXP DUP2 SLOAD DUP2 PUSH1 0xFF MUL NOT AND SWAP1 DUP4 ISZERO ISZERO MUL OR SWAP1 SSTORE POP PUSH32 0x33B8F513B5466D89F2A96589E6E48F7682FDDC5DEBD283E6BB921ED3BBA52B78 DUP2 CALLER PUSH1 0x40 MLOAD PUSH2 0x87E SWAP3 SWAP2 SWAP1 PUSH2 0x1644 JUMP JUMPDEST PUSH1 0x40 MLOAD DUP1 SWAP2 SUB SWAP1 LOG1 POP JUMP JUMPDEST PUSH0 DUP1 DUP2 SLOAD DUP1 SWAP3 SWAP2 SWAP1 PUSH2 0x89A SWAP1 PUSH2 0x1728 JUMP JUMPDEST SWAP2 SWAP1 POP SSTORE POP PUSH0 PUSH1 0x1 PUSH0 DUP1 SLOAD DUP2 MSTORE PUSH1 0x20 ADD SWAP1 DUP2 MSTORE PUSH1 0x20 ADD PUSH0 KECCAK256 SWAP1 POP PUSH0 SLOAD DUP2 PUSH0 ADD DUP2 SWAP1 SSTORE POP CALLER DUP2 PUSH1 0x1 ADD PUSH0 PUSH2 0x100 EXP DUP2 SLOAD DUP2 PUSH20 0xFFFFFFFFFFFFFFFFFFFFFFFFFFFFFFFFFFFFFFFF MUL NOT AND SWAP1 DUP4 PUSH20 0xFFFFFFFFFFFFFFFFFFFFFFFFFFFFFFFFFFFFFFFF AND MUL OR SWAP1 SSTORE POP DUP2 DUP2 PUSH1 0x2 ADD SWAP1 DUP2 PUSH2 0x910 SWAP2 SWAP1 PUSH2 0x199A JUMP JUMPDEST POP PUSH0 DUP2 PUSH1 0x3 ADD DUP2 SWAP1 SSTORE POP PUSH1 0x2 PUSH0 CALLER PUSH20 0xFFFFFFFFFFFFFFFFFFFFFFFFFFFFFFFFFFFFFFFF AND PUSH20 0xFFFFFFFFFFFFFFFFFFFFFFFFFFFFFFFFFFFFFFFF AND DUP2 MSTORE PUSH1 0x20 ADD SWAP1 DUP2 MSTORE PUSH1 0x20 ADD PUSH0 KECCAK256 PUSH0 SLOAD SWAP1 DUP1 PUSH1 0x1 DUP2 SLOAD ADD DUP1 DUP3 SSTORE DUP1 SWAP2 POP POP PUSH1 0x1 SWAP1 SUB SWAP1 PUSH0 MSTORE PUSH1 0x20 PUSH0 KECCAK256 ADD PUSH0 SWAP1 SWAP2 SWAP1 SWAP2 SWAP1 SWAP2 POP SSTORE PUSH32 0x5B04DBCFF53DFD77771F59E7BA56EC837AC5325729CF7F1DD0ED4AEF082A6AAB PUSH0 SLOAD CALLER DUP5 PUSH1 0x40 MLOAD PUSH2 0x9B0 SWAP4 SWAP3 SWAP2 SWAP1 PUSH2 0x1A69 JUMP JUMPDEST PUSH1 0x40 MLOAD DUP1 SWAP2 SUB SWAP1 LOG1 POP POP JUMP JUMPDEST PUSH2 0x9C4 PUSH2 0xEBD JUMP JUMPDEST PUSH0 DUP3 GT DUP1 ISZERO PUSH2 0x9D4 JUMPI POP PUSH0 SLOAD DUP3 GT ISZERO JUMPDEST PUSH2 0xA13 JUMPI PUSH1 0x40 MLOAD PUSH32 0x8C379A000000000000000000000000000000000000000000000000000000000 DUP2 MSTORE PUSH1 0x4 ADD PUSH2 0xA0A SWAP1 PUSH2 0x156A JUMP JUMPDEST PUSH1 0x40 MLOAD DUP1 SWAP2 SUB SWAP1 REVERT JUMPDEST PUSH1 0x1 PUSH0 DUP4 DUP2 MSTORE PUSH1 0x20 ADD SWAP1 DUP2 MSTORE PUSH1 0x20 ADD PUSH0 KECCAK256 PUSH1 0x40 MLOAD DUP1 PUSH1 0x80 ADD PUSH1 0x40 MSTORE SWAP1 DUP2 PUSH0 DUP3 ADD SLOAD DUP2 MSTORE PUSH1 0x20 ADD PUSH1 0x1 DUP3 ADD PUSH0 SWAP1 SLOAD SWAP1 PUSH2 0x100 EXP SWAP1 DIV PUSH20 0xFFFFFFFFFFFFFFFFFFFFFFFFFFFFFFFFFFFFFFFF AND PUSH20 0xFFFFFFFFFFFFFFFFFFFFFFFFFFFFFFFFFFFFFFFF AND PUSH20 0xFFFFFFFFFFFFFFFFFFFFFFFFFFFFFFFFFFFFFFFF AND DUP2 MSTORE PUSH1 0x20 ADD PUSH1 0x2 DUP3 ADD DUP1 SLOAD PUSH2 0xA9D SWAP1 PUSH2 0x1698 JUMP JUMPDEST DUP1 PUSH1 0x1F ADD PUSH1 0x20 DUP1 SWAP2 DIV MUL PUSH1 0x20 ADD PUSH1 0x40 MLOAD SWAP1 DUP2 ADD PUSH1 0x40 MSTORE DUP1 SWAP3 SWAP2 SWAP1 DUP2 DUP2 MSTORE PUSH1 0x20 ADD DUP3 DUP1 SLOAD PUSH2 0xAC9 SWAP1 PUSH2 0x1698 JUMP JUMPDEST DUP1 ISZERO PUSH2 0xB14 JUMPI DUP1 PUSH1 0x1F LT PUSH2 0xAEB JUMPI PUSH2 0x100 DUP1 DUP4 SLOAD DIV MUL DUP4 MSTORE SWAP2 PUSH1 0x20 ADD SWAP2 PUSH2 0xB14 JUMP JUMPDEST DUP3 ADD SWAP2 SWAP1 PUSH0 MSTORE PUSH1 0x20 PUSH0 KECCAK256 SWAP1 JUMPDEST DUP2 SLOAD DUP2 MSTORE SWAP1 PUSH1 0x1 ADD SWAP1 PUSH1 0x20 ADD DUP1 DUP4 GT PUSH2 0xAF7 JUMPI DUP3 SWAP1 SUB PUSH1 0x1F AND DUP3 ADD SWAP2 JUMPDEST POP POP POP POP POP DUP2 MSTORE PUSH1 0x20 ADD PUSH1 0x3 DUP3 ADD SLOAD DUP2 MSTORE POP POP SWAP1 POP SWAP2 SWAP1 POP JUMP JUMPDEST PUSH1 0x1 PUSH1 0x20 MSTORE DUP1 PUSH0 MSTORE PUSH1 0x40 PUSH0 KECCAK256 PUSH0 SWAP2 POP SWAP1 POP DUP1 PUSH0 ADD SLOAD SWAP1 DUP1 PUSH1 0x1 ADD PUSH0 SWAP1 SLOAD SWAP1 PUSH2 0x100 EXP SWAP1 DIV PUSH20 0xFFFFFFFFFFFFFFFFFFFFFFFFFFFFFFFFFFFFFFFF AND SWAP1 DUP1 PUSH1 0x2 ADD DUP1 SLOAD PUSH2 0xB78 SWAP1 PUSH2 0x1698 JUMP JUMPDEST DUP1 PUSH1 0x1F ADD PUSH1 0x20 DUP1 SWAP2 DIV MUL PUSH1 0x20 ADD PUSH1 0x40 MLOAD SWAP1 DUP2 ADD PUSH1 0x40 MSTORE DUP1 SWAP3 SWAP2 SWAP1 DUP2 DUP2 MSTORE PUSH1 0x20 ADD DUP3 DUP1 SLOAD PUSH2 0xBA4 SWAP1 PUSH2 0x1698 JUMP JUMPDEST DUP1 ISZERO PUSH2 0xBEF JUMPI DUP1 PUSH1 0x1F LT PUSH2 0xBC6 JUMPI PUSH2 0x100 DUP1 DUP4 SLOAD DIV MUL DUP4 MSTORE SWAP2 PUSH1 0x20 ADD SWAP2 PUSH2 0xBEF JUMP JUMPDEST DUP3 ADD SWAP2 SWAP1 PUSH0 MSTORE PUSH1 0x20 PUSH0 KECCAK256 SWAP1 JUMPDEST DUP2 SLOAD DUP2 MSTORE SWAP1 PUSH1 0x1 ADD SWAP1 PUSH1 0x20 ADD DUP1 DUP4 GT PUSH2 0xBD2 JUMPI DUP3 SWAP1 SUB PUSH1 0x1F AND DUP3 ADD SWAP2 JUMPDEST POP POP POP POP POP SWAP1 DUP1 PUSH1 0x3 ADD SLOAD SWAP1 POP DUP5 JUMP JUMPDEST PUSH1 0x60 PUSH0 DUP1 JUMPDEST PUSH0 SLOAD DUP2 GT PUSH2 0xC94 JUMPI DUP4 PUSH20 0xFFFFFFFFFFFFFFFFFFFFFFFFFFFFFFFFFFFFFFFF AND PUSH1 0x1 PUSH0 DUP4 DUP2 MSTORE PUSH1 0x20 ADD SWAP1 DUP2 MSTORE PUSH1 0x20 ADD PUSH0 KECCAK256 PUSH1 0x1 ADD PUSH0 SWAP1 SLOAD SWAP1 PUSH2 0x100 EXP SWAP1 DIV PUSH20 0xFFFFFFFFFFFFFFFFFFFFFFFFFFFFFFFFFFFFFFFF AND PUSH20 0xFFFFFFFFFFFFFFFFFFFFFFFFFFFFFFFFFFFFFFFF AND SUB PUSH2 0xC81 JUMPI DUP2 DUP1 PUSH2 0xC7D SWAP1 PUSH2 0x1728 JUMP JUMPDEST SWAP3 POP POP JUMPDEST DUP1 DUP1 PUSH2 0xC8C SWAP1 PUSH2 0x1728 JUMP JUMPDEST SWAP2 POP POP PUSH2 0xC04 JUMP JUMPDEST POP PUSH0 DUP1 SLOAD PUSH8 0xFFFFFFFFFFFFFFFF DUP2 GT ISZERO PUSH2 0xCB1 JUMPI PUSH2 0xCB0 PUSH2 0x1269 JUMP JUMPDEST JUMPDEST PUSH1 0x40 MLOAD SWAP1 DUP1 DUP3 MSTORE DUP1 PUSH1 0x20 MUL PUSH1 0x20 ADD DUP3 ADD PUSH1 0x40 MSTORE DUP1 ISZERO PUSH2 0xCEA JUMPI DUP2 PUSH1 0x20 ADD JUMPDEST PUSH2 0xCD7 PUSH2 0xEBD JUMP JUMPDEST DUP2 MSTORE PUSH1 0x20 ADD SWAP1 PUSH1 0x1 SWAP1 SUB SWAP1 DUP2 PUSH2 0xCCF JUMPI SWAP1 POP JUMPDEST POP SWAP1 POP PUSH0 DUP1 JUMPDEST DUP4 DUP2 GT PUSH2 0xEB1 JUMPI DUP6 PUSH20 0xFFFFFFFFFFFFFFFFFFFFFFFFFFFFFFFFFFFFFFFF AND PUSH1 0x1 PUSH0 DUP4 DUP2 MSTORE PUSH1 0x20 ADD SWAP1 DUP2 MSTORE PUSH1 0x20 ADD PUSH0 KECCAK256 PUSH1 0x1 ADD PUSH0 SWAP1 SLOAD SWAP1 PUSH2 0x100 EXP SWAP1 DIV PUSH20 0xFFFFFFFFFFFFFFFFFFFFFFFFFFFFFFFFFFFFFFFF AND PUSH20 0xFFFFFFFFFFFFFFFFFFFFFFFFFFFFFFFFFFFFFFFF AND SUB PUSH2 0xE9E JUMPI PUSH1 0x1 PUSH0 DUP3 DUP2 MSTORE PUSH1 0x20 ADD SWAP1 DUP2 MSTORE PUSH1 0x20 ADD PUSH0 KECCAK256 PUSH1 0x40 MLOAD DUP1 PUSH1 0x80 ADD PUSH1 0x40 MSTORE SWAP1 DUP2 PUSH0 DUP3 ADD SLOAD DUP2 MSTORE PUSH1 0x20 ADD PUSH1 0x1 DUP3 ADD PUSH0 SWAP1 SLOAD SWAP1 PUSH2 0x100 EXP SWAP1 DIV PUSH20 0xFFFFFFFFFFFFFFFFFFFFFFFFFFFFFFFFFFFFFFFF AND PUSH20 0xFFFFFFFFFFFFFFFFFFFFFFFFFFFFFFFFFFFFFFFF AND PUSH20 0xFFFFFFFFFFFFFFFFFFFFFFFFFFFFFFFFFFFFFFFF AND DUP2 MSTORE PUSH1 0x20 ADD PUSH1 0x2 DUP3 ADD DUP1 SLOAD PUSH2 0xDE7 SWAP1 PUSH2 0x1698 JUMP JUMPDEST DUP1 PUSH1 0x1F ADD PUSH1 0x20 DUP1 SWAP2 DIV MUL PUSH1 0x20 ADD PUSH1 0x40 MLOAD SWAP1 DUP2 ADD PUSH1 0x40 MSTORE DUP1 SWAP3 SWAP2 SWAP1 DUP2 DUP2 MSTORE PUSH1 0x20 ADD DUP3 DUP1 SLOAD PUSH2 0xE13 SWAP1 PUSH2 0x1698 JUMP JUMPDEST DUP1 ISZERO PUSH2 0xE5E JUMPI DUP1 PUSH1 0x1F LT PUSH2 0xE35 JUMPI PUSH2 0x100 DUP1 DUP4 SLOAD DIV MUL DUP4 MSTORE SWAP2 PUSH1 0x20 ADD SWAP2 PUSH2 0xE5E JUMP JUMPDEST DUP3 ADD SWAP2 SWAP1 PUSH0 MSTORE PUSH1 0x20 PUSH0 KECCAK256 SWAP1 JUMPDEST DUP2 SLOAD DUP2 MSTORE SWAP1 PUSH1 0x1 ADD SWAP1 PUSH1 0x20 ADD DUP1 DUP4 GT PUSH2 0xE41 JUMPI DUP3 SWAP1 SUB PUSH1 0x1F AND DUP3 ADD SWAP2 JUMPDEST POP POP POP POP POP DUP2 MSTORE PUSH1 0x20 ADD PUSH1 0x3 DUP3 ADD SLOAD DUP2 MSTORE POP POP DUP4 DUP4 DUP2 MLOAD DUP2 LT PUSH2 0xE84 JUMPI PUSH2 0xE83 PUSH2 0x16FB JUMP JUMPDEST JUMPDEST PUSH1 0x20 MUL PUSH1 0x20 ADD ADD DUP2 SWAP1 MSTORE POP DUP2 DUP1 PUSH2 0xE9A SWAP1 PUSH2 0x1728 JUMP JUMPDEST SWAP3 POP POP JUMPDEST DUP1 DUP1 PUSH2 0xEA9 SWAP1 PUSH2 0x1728 JUMP JUMPDEST SWAP2 POP POP PUSH2 0xCF0 JUMP JUMPDEST POP DUP2 SWAP4 POP POP POP POP SWAP2 SWAP1 POP JUMP JUMPDEST PUSH1 0x40 MLOAD DUP1 PUSH1 0x80 ADD PUSH1 0x40 MSTORE DUP1 PUSH0 DUP2 MSTORE PUSH1 0x20 ADD PUSH0 PUSH20 0xFFFFFFFFFFFFFFFFFFFFFFFFFFFFFFFFFFFFFFFF AND DUP2 MSTORE PUSH1 0x20 ADD PUSH1 0x60 DUP2 MSTORE PUSH1 0x20 ADD PUSH0 DUP2 MSTORE POP SWAP1 JUMP JUMPDEST PUSH0 PUSH1 0x40 MLOAD SWAP1 POP SWAP1 JUMP JUMPDEST PUSH0 DUP1 REVERT JUMPDEST PUSH0 DUP1 REVERT JUMPDEST PUSH0 DUP2 SWAP1 POP SWAP2 SWAP1 POP JUMP JUMPDEST PUSH2 0xF1B DUP2 PUSH2 0xF09 JUMP JUMPDEST DUP2 EQ PUSH2 0xF25 JUMPI PUSH0 DUP1 REVERT JUMPDEST POP JUMP JUMPDEST PUSH0 DUP2 CALLDATALOAD SWAP1 POP PUSH2 0xF36 DUP2 PUSH2 0xF12 JUMP JUMPDEST SWAP3 SWAP2 POP POP JUMP JUMPDEST PUSH0 PUSH20 0xFFFFFFFFFFFFFFFFFFFFFFFFFFFFFFFFFFFFFFFF DUP3 AND SWAP1 POP SWAP2 SWAP1 POP JUMP JUMPDEST PUSH0 PUSH2 0xF65 DUP3 PUSH2 0xF3C JUMP JUMPDEST SWAP1 POP SWAP2 SWAP1 POP JUMP JUMPDEST PUSH2 0xF75 DUP2 PUSH2 0xF5B JUMP JUMPDEST DUP2 EQ PUSH2 0xF7F JUMPI PUSH0 DUP1 REVERT JUMPDEST POP JUMP JUMPDEST PUSH0 DUP2 CALLDATALOAD SWAP1 POP PUSH2 0xF90 DUP2 PUSH2 0xF6C JUMP JUMPDEST SWAP3 SWAP2 POP POP JUMP JUMPDEST PUSH0 DUP1 PUSH1 0x40 DUP4 DUP6 SUB SLT ISZERO PUSH2 0xFAC JUMPI PUSH2 0xFAB PUSH2 0xF01 JUMP JUMPDEST JUMPDEST PUSH0 PUSH2 0xFB9 DUP6 DUP3 DUP7 ADD PUSH2 0xF28 JUMP JUMPDEST SWAP3 POP POP PUSH1 0x20 PUSH2 0xFCA DUP6 DUP3 DUP7 ADD PUSH2 0xF82 JUMP JUMPDEST SWAP2 POP POP SWAP3 POP SWAP3 SWAP1 POP JUMP JUMPDEST PUSH0 DUP2 ISZERO ISZERO SWAP1 POP SWAP2 SWAP1 POP JUMP JUMPDEST PUSH2 0xFE8 DUP2 PUSH2 0xFD4 JUMP JUMPDEST DUP3 MSTORE POP POP JUMP JUMPDEST PUSH0 PUSH1 0x20 DUP3 ADD SWAP1 POP PUSH2 0x1001 PUSH0 DUP4 ADD DUP5 PUSH2 0xFDF JUMP JUMPDEST SWAP3 SWAP2 POP POP JUMP JUMPDEST PUSH0 PUSH1 0x20 DUP3 DUP5 SUB SLT ISZERO PUSH2 0x101C JUMPI PUSH2 0x101B PUSH2 0xF01 JUMP JUMPDEST JUMPDEST PUSH0 PUSH2 0x1029 DUP5 DUP3 DUP6 ADD PUSH2 0xF28 JUMP JUMPDEST SWAP2 POP POP SWAP3 SWAP2 POP POP JUMP JUMPDEST PUSH2 0x103B DUP2 PUSH2 0xF09 JUMP JUMPDEST DUP3 MSTORE POP POP JUMP JUMPDEST PUSH0 PUSH1 0x20 DUP3 ADD SWAP1 POP PUSH2 0x1054 PUSH0 DUP4 ADD DUP5 PUSH2 0x1032 JUMP JUMPDEST SWAP3 SWAP2 POP POP JUMP JUMPDEST PUSH0 DUP1 PUSH1 0x40 DUP4 DUP6 SUB SLT ISZERO PUSH2 0x1070 JUMPI PUSH2 0x106F PUSH2 0xF01 JUMP JUMPDEST JUMPDEST PUSH0 PUSH2 0x107D DUP6 DUP3 DUP7 ADD PUSH2 0xF82 JUMP JUMPDEST SWAP3 POP POP PUSH1 0x20 PUSH2 0x108E DUP6 DUP3 DUP7 ADD PUSH2 0xF28 JUMP JUMPDEST SWAP2 POP POP SWAP3 POP SWAP3 SWAP1 POP JUMP JUMPDEST PUSH0 DUP2 MLOAD SWAP1 POP SWAP2 SWAP1 POP JUMP JUMPDEST PUSH0 DUP3 DUP3 MSTORE PUSH1 0x20 DUP3 ADD SWAP1 POP SWAP3 SWAP2 POP POP JUMP JUMPDEST PUSH0 DUP2 SWAP1 POP PUSH1 0x20 DUP3 ADD SWAP1 POP SWAP2 SWAP1 POP JUMP JUMPDEST PUSH2 0x10CA DUP2 PUSH2 0xF09 JUMP JUMPDEST DUP3 MSTORE POP POP JUMP JUMPDEST PUSH2 0x10D9 DUP2 PUSH2 0xF5B JUMP JUMPDEST DUP3 MSTORE POP POP JUMP JUMPDEST PUSH0 DUP2 MLOAD SWAP1 POP SWAP2 SWAP1 POP JUMP JUMPDEST PUSH0 DUP3 DUP3 MSTORE PUSH1 0x20 DUP3 ADD SWAP1 POP SWAP3 SWAP2 POP POP JUMP JUMPDEST DUP3 DUP2 DUP4 MCOPY PUSH0 DUP4 DUP4 ADD MSTORE POP POP POP JUMP JUMPDEST PUSH0 PUSH1 0x1F NOT PUSH1 0x1F DUP4 ADD AND SWAP1 POP SWAP2 SWAP1 POP JUMP JUMPDEST PUSH0 PUSH2 0x1121 DUP3 PUSH2 0x10DF JUMP JUMPDEST PUSH2 0x112B DUP2 DUP6 PUSH2 0x10E9 JUMP JUMPDEST SWAP4 POP PUSH2 0x113B DUP2 DUP6 PUSH1 0x20 DUP7 ADD PUSH2 0x10F9 JUMP JUMPDEST PUSH2 0x1144 DUP2 PUSH2 0x1107 JUMP JUMPDEST DUP5 ADD SWAP2 POP POP SWAP3 SWAP2 POP POP JUMP JUMPDEST PUSH0 PUSH1 0x80 DUP4 ADD PUSH0 DUP4 ADD MLOAD PUSH2 0x1164 PUSH0 DUP7 ADD DUP3 PUSH2 0x10C1 JUMP JUMPDEST POP PUSH1 0x20 DUP4 ADD MLOAD PUSH2 0x1177 PUSH1 0x20 DUP7 ADD DUP3 PUSH2 0x10D0 JUMP JUMPDEST POP PUSH1 0x40 DUP4 ADD MLOAD DUP5 DUP3 SUB PUSH1 0x40 DUP7 ADD MSTORE PUSH2 0x118F DUP3 DUP3 PUSH2 0x1117 JUMP JUMPDEST SWAP2 POP POP PUSH1 0x60 DUP4 ADD MLOAD PUSH2 0x11A4 PUSH1 0x60 DUP7 ADD DUP3 PUSH2 0x10C1 JUMP JUMPDEST POP DUP1 SWAP2 POP POP SWAP3 SWAP2 POP POP JUMP JUMPDEST PUSH0 PUSH2 0x11BA DUP4 DUP4 PUSH2 0x114F JUMP JUMPDEST SWAP1 POP SWAP3 SWAP2 POP POP JUMP JUMPDEST PUSH0 PUSH1 0x20 DUP3 ADD SWAP1 POP SWAP2 SWAP1 POP JUMP JUMPDEST PUSH0 PUSH2 0x11D8 DUP3 PUSH2 0x1098 JUMP JUMPDEST PUSH2 0x11E2 DUP2 DUP6 PUSH2 0x10A2 JUMP JUMPDEST SWAP4 POP DUP4 PUSH1 0x20 DUP3 MUL DUP6 ADD PUSH2 0x11F4 DUP6 PUSH2 0x10B2 JUMP JUMPDEST DUP1 PUSH0 JUMPDEST DUP6 DUP2 LT ISZERO PUSH2 0x122F JUMPI DUP5 DUP5 SUB DUP10 MSTORE DUP2 MLOAD PUSH2 0x1210 DUP6 DUP3 PUSH2 0x11AF JUMP JUMPDEST SWAP5 POP PUSH2 0x121B DUP4 PUSH2 0x11C2 JUMP JUMPDEST SWAP3 POP PUSH1 0x20 DUP11 ADD SWAP10 POP POP PUSH1 0x1 DUP2 ADD SWAP1 POP PUSH2 0x11F7 JUMP JUMPDEST POP DUP3 SWAP8 POP DUP8 SWAP6 POP POP POP POP POP POP SWAP3 SWAP2 POP POP JUMP JUMPDEST PUSH0 PUSH1 0x20 DUP3 ADD SWAP1 POP DUP2 DUP2 SUB PUSH0 DUP4 ADD MSTORE PUSH2 0x1259 DUP2 DUP5 PUSH2 0x11CE JUMP JUMPDEST SWAP1 POP SWAP3 SWAP2 POP POP JUMP JUMPDEST PUSH0 DUP1 REVERT JUMPDEST PUSH0 DUP1 REVERT JUMPDEST PUSH32 0x4E487B7100000000000000000000000000000000000000000000000000000000 PUSH0 MSTORE PUSH1 0x41 PUSH1 0x4 MSTORE PUSH1 0x24 PUSH0 REVERT JUMPDEST PUSH2 0x129F DUP3 PUSH2 0x1107 JUMP JUMPDEST DUP2 ADD DUP2 DUP2 LT PUSH8 0xFFFFFFFFFFFFFFFF DUP3 GT OR ISZERO PUSH2 0x12BE JUMPI PUSH2 0x12BD PUSH2 0x1269 JUMP JUMPDEST JUMPDEST DUP1 PUSH1 0x40 MSTORE POP POP POP JUMP JUMPDEST PUSH0 PUSH2 0x12D0 PUSH2 0xEF8 JUMP JUMPDEST SWAP1 POP PUSH2 0x12DC DUP3 DUP3 PUSH2 0x1296 JUMP JUMPDEST SWAP2 SWAP1 POP JUMP JUMPDEST PUSH0 PUSH8 0xFFFFFFFFFFFFFFFF DUP3 GT ISZERO PUSH2 0x12FB JUMPI PUSH2 0x12FA PUSH2 0x1269 JUMP JUMPDEST JUMPDEST PUSH2 0x1304 DUP3 PUSH2 0x1107 JUMP JUMPDEST SWAP1 POP PUSH1 0x20 DUP2 ADD SWAP1 POP SWAP2 SWAP1 POP JUMP JUMPDEST DUP3 DUP2 DUP4 CALLDATACOPY PUSH0 DUP4 DUP4 ADD MSTORE POP POP POP JUMP JUMPDEST PUSH0 PUSH2 0x1331 PUSH2 0x132C DUP5 PUSH2 0x12E1 JUMP JUMPDEST PUSH2 0x12C7 JUMP JUMPDEST SWAP1 POP DUP3 DUP2 MSTORE PUSH1 0x20 DUP2 ADD DUP5 DUP5 DUP5 ADD GT ISZERO PUSH2 0x134D JUMPI PUSH2 0x134C PUSH2 0x1265 JUMP JUMPDEST JUMPDEST PUSH2 0x1358 DUP5 DUP3 DUP6 PUSH2 0x1311 JUMP JUMPDEST POP SWAP4 SWAP3 POP POP POP JUMP JUMPDEST PUSH0 DUP3 PUSH1 0x1F DUP4 ADD SLT PUSH2 0x1374 JUMPI PUSH2 0x1373 PUSH2 0x1261 JUMP JUMPDEST JUMPDEST DUP2 CALLDATALOAD PUSH2 0x1384 DUP5 DUP3 PUSH1 0x20 DUP7 ADD PUSH2 0x131F JUMP JUMPDEST SWAP2 POP POP SWAP3 SWAP2 POP POP JUMP JUMPDEST PUSH0 PUSH1 0x20 DUP3 DUP5 SUB SLT ISZERO PUSH2 0x13A2 JUMPI PUSH2 0x13A1 PUSH2 0xF01 JUMP JUMPDEST JUMPDEST PUSH0 DUP3 ADD CALLDATALOAD PUSH8 0xFFFFFFFFFFFFFFFF DUP2 GT ISZERO PUSH2 0x13BF JUMPI PUSH2 0x13BE PUSH2 0xF05 JUMP JUMPDEST JUMPDEST PUSH2 0x13CB DUP5 DUP3 DUP6 ADD PUSH2 0x1360 JUMP JUMPDEST SWAP2 POP POP SWAP3 SWAP2 POP POP JUMP JUMPDEST PUSH0 PUSH1 0x80 DUP4 ADD PUSH0 DUP4 ADD MLOAD PUSH2 0x13E9 PUSH0 DUP7 ADD DUP3 PUSH2 0x10C1 JUMP JUMPDEST POP PUSH1 0x20 DUP4 ADD MLOAD PUSH2 0x13FC PUSH1 0x20 DUP7 ADD DUP3 PUSH2 0x10D0 JUMP JUMPDEST POP PUSH1 0x40 DUP4 ADD MLOAD DUP5 DUP3 SUB PUSH1 0x40 DUP7 ADD MSTORE PUSH2 0x1414 DUP3 DUP3 PUSH2 0x1117 JUMP JUMPDEST SWAP2 POP POP PUSH1 0x60 DUP4 ADD MLOAD PUSH2 0x1429 PUSH1 0x60 DUP7 ADD DUP3 PUSH2 0x10C1 JUMP JUMPDEST POP DUP1 SWAP2 POP POP SWAP3 SWAP2 POP POP JUMP JUMPDEST PUSH0 PUSH1 0x20 DUP3 ADD SWAP1 POP DUP2 DUP2 SUB PUSH0 DUP4 ADD MSTORE PUSH2 0x144C DUP2 DUP5 PUSH2 0x13D4 JUMP JUMPDEST SWAP1 POP SWAP3 SWAP2 POP POP JUMP JUMPDEST PUSH2 0x145D DUP2 PUSH2 0xF5B JUMP JUMPDEST DUP3 MSTORE POP POP JUMP JUMPDEST PUSH0 DUP3 DUP3 MSTORE PUSH1 0x20 DUP3 ADD SWAP1 POP SWAP3 SWAP2 POP POP JUMP JUMPDEST PUSH0 PUSH2 0x147D DUP3 PUSH2 0x10DF JUMP JUMPDEST PUSH2 0x1487 DUP2 DUP6 PUSH2 0x1463 JUMP JUMPDEST SWAP4 POP PUSH2 0x1497 DUP2 DUP6 PUSH1 0x20 DUP7 ADD PUSH2 0x10F9 JUMP JUMPDEST PUSH2 0x14A0 DUP2 PUSH2 0x1107 JUMP JUMPDEST DUP5 ADD SWAP2 POP POP SWAP3 SWAP2 POP POP JUMP JUMPDEST PUSH0 PUSH1 0x80 DUP3 ADD SWAP1 POP PUSH2 0x14BE PUSH0 DUP4 ADD DUP8 PUSH2 0x1032 JUMP JUMPDEST PUSH2 0x14CB PUSH1 0x20 DUP4 ADD DUP7 PUSH2 0x1454 JUMP JUMPDEST DUP2 DUP2 SUB PUSH1 0x40 DUP4 ADD MSTORE PUSH2 0x14DD DUP2 DUP6 PUSH2 0x1473 JUMP JUMPDEST SWAP1 POP PUSH2 0x14EC PUSH1 0x60 DUP4 ADD DUP5 PUSH2 0x1032 JUMP JUMPDEST SWAP6 SWAP5 POP POP POP POP POP JUMP JUMPDEST PUSH0 PUSH1 0x20 DUP3 DUP5 SUB SLT ISZERO PUSH2 0x150A JUMPI PUSH2 0x1509 PUSH2 0xF01 JUMP JUMPDEST JUMPDEST PUSH0 PUSH2 0x1517 DUP5 DUP3 DUP6 ADD PUSH2 0xF82 JUMP JUMPDEST SWAP2 POP POP SWAP3 SWAP2 POP POP JUMP JUMPDEST PUSH32 0x496E76616C696420747765657420494400000000000000000000000000000000 PUSH0 DUP3 ADD MSTORE POP JUMP JUMPDEST PUSH0 PUSH2 0x1554 PUSH1 0x10 DUP4 PUSH2 0x1463 JUMP JUMPDEST SWAP2 POP PUSH2 0x155F DUP3 PUSH2 0x1520 JUMP JUMPDEST PUSH1 0x20 DUP3 ADD SWAP1 POP SWAP2 SWAP1 POP JUMP JUMPDEST PUSH0 PUSH1 0x20 DUP3 ADD SWAP1 POP DUP2 DUP2 SUB PUSH0 DUP4 ADD MSTORE PUSH2 0x1581 DUP2 PUSH2 0x1548 JUMP JUMPDEST SWAP1 POP SWAP2 SWAP1 POP JUMP JUMPDEST PUSH32 0x596F752068617665206E6F74206C696B656420746869732074776565742E0000 PUSH0 DUP3 ADD MSTORE POP JUMP JUMPDEST PUSH0 PUSH2 0x15BC PUSH1 0x1E DUP4 PUSH2 0x1463 JUMP JUMPDEST SWAP2 POP PUSH2 0x15C7 DUP3 PUSH2 0x1588 JUMP JUMPDEST PUSH1 0x20 DUP3 ADD SWAP1 POP SWAP2 SWAP1 POP JUMP JUMPDEST PUSH0 PUSH1 0x20 DUP3 ADD SWAP1 POP DUP2 DUP2 SUB PUSH0 DUP4 ADD MSTORE PUSH2 0x15E9 DUP2 PUSH2 0x15B0 JUMP JUMPDEST SWAP1 POP SWAP2 SWAP1 POP JUMP JUMPDEST PUSH32 0x4E487B7100000000000000000000000000000000000000000000000000000000 PUSH0 MSTORE PUSH1 0x11 PUSH1 0x4 MSTORE PUSH1 0x24 PUSH0 REVERT JUMPDEST PUSH0 PUSH2 0x1627 DUP3 PUSH2 0xF09 JUMP JUMPDEST SWAP2 POP PUSH0 DUP3 SUB PUSH2 0x1639 JUMPI PUSH2 0x1638 PUSH2 0x15F0 JUMP JUMPDEST JUMPDEST PUSH1 0x1 DUP3 SUB SWAP1 POP SWAP2 SWAP1 POP JUMP JUMPDEST PUSH0 PUSH1 0x40 DUP3 ADD SWAP1 POP PUSH2 0x1657 PUSH0 DUP4 ADD DUP6 PUSH2 0x1032 JUMP JUMPDEST PUSH2 0x1664 PUSH1 0x20 DUP4 ADD DUP5 PUSH2 0x1454 JUMP JUMPDEST SWAP4 SWAP3 POP POP POP JUMP JUMPDEST PUSH32 0x4E487B7100000000000000000000000000000000000000000000000000000000 PUSH0 MSTORE PUSH1 0x22 PUSH1 0x4 MSTORE PUSH1 0x24 PUSH0 REVERT JUMPDEST PUSH0 PUSH1 0x2 DUP3 DIV SWAP1 POP PUSH1 0x1 DUP3 AND DUP1 PUSH2 0x16AF JUMPI PUSH1 0x7F DUP3 AND SWAP2 POP JUMPDEST PUSH1 0x20 DUP3 LT DUP2 SUB PUSH2 0x16C2 JUMPI PUSH2 0x16C1 PUSH2 0x166B JUMP JUMPDEST JUMPDEST POP SWAP2 SWAP1 POP JUMP JUMPDEST PUSH0 PUSH2 0x16D2 DUP3 PUSH2 0xF09 JUMP JUMPDEST SWAP2 POP PUSH2 0x16DD DUP4 PUSH2 0xF09 JUMP JUMPDEST SWAP3 POP DUP3 DUP3 SUB SWAP1 POP DUP2 DUP2 GT ISZERO PUSH2 0x16F5 JUMPI PUSH2 0x16F4 PUSH2 0x15F0 JUMP JUMPDEST JUMPDEST SWAP3 SWAP2 POP POP JUMP JUMPDEST PUSH32 0x4E487B7100000000000000000000000000000000000000000000000000000000 PUSH0 MSTORE PUSH1 0x32 PUSH1 0x4 MSTORE PUSH1 0x24 PUSH0 REVERT JUMPDEST PUSH0 PUSH2 0x1732 DUP3 PUSH2 0xF09 JUMP JUMPDEST SWAP2 POP PUSH32 0xFFFFFFFFFFFFFFFFFFFFFFFFFFFFFFFFFFFFFFFFFFFFFFFFFFFFFFFFFFFFFFFF DUP3 SUB PUSH2 0x1764 JUMPI PUSH2 0x1763 PUSH2 0x15F0 JUMP JUMPDEST JUMPDEST PUSH1 0x1 DUP3 ADD SWAP1 POP SWAP2 SWAP1 POP JUMP JUMPDEST PUSH32 0x596F75206861766520616C7265616479206C696B656420746869732074776565 PUSH0 DUP3 ADD MSTORE PUSH32 0x7400000000000000000000000000000000000000000000000000000000000000 PUSH1 0x20 DUP3 ADD MSTORE POP JUMP JUMPDEST PUSH0 PUSH2 0x17C9 PUSH1 0x21 DUP4 PUSH2 0x1463 JUMP JUMPDEST SWAP2 POP PUSH2 0x17D4 DUP3 PUSH2 0x176F JUMP JUMPDEST PUSH1 0x40 DUP3 ADD SWAP1 POP SWAP2 SWAP1 POP JUMP JUMPDEST PUSH0 PUSH1 0x20 DUP3 ADD SWAP1 POP DUP2 DUP2 SUB PUSH0 DUP4 ADD MSTORE PUSH2 0x17F6 DUP2 PUSH2 0x17BD JUMP JUMPDEST SWAP1 POP SWAP2 SWAP1 POP JUMP JUMPDEST PUSH0 DUP2 SWAP1 POP DUP2 PUSH0 MSTORE PUSH1 0x20 PUSH0 KECCAK256 SWAP1 POP SWAP2 SWAP1 POP JUMP JUMPDEST PUSH0 PUSH1 0x20 PUSH1 0x1F DUP4 ADD DIV SWAP1 POP SWAP2 SWAP1 POP JUMP JUMPDEST PUSH0 DUP3 DUP3 SHL SWAP1 POP SWAP3 SWAP2 POP POP JUMP JUMPDEST PUSH0 PUSH1 0x8 DUP4 MUL PUSH2 0x1859 PUSH32 0xFFFFFFFFFFFFFFFFFFFFFFFFFFFFFFFFFFFFFFFFFFFFFFFFFFFFFFFFFFFFFFFF DUP3 PUSH2 0x181E JUMP JUMPDEST PUSH2 0x1863 DUP7 DUP4 PUSH2 0x181E JUMP JUMPDEST SWAP6 POP DUP1 NOT DUP5 AND SWAP4 POP DUP1 DUP7 AND DUP5 OR SWAP3 POP POP POP SWAP4 SWAP3 POP POP POP JUMP JUMPDEST PUSH0 DUP2 SWAP1 POP SWAP2 SWAP1 POP JUMP JUMPDEST PUSH0 PUSH2 0x189E PUSH2 0x1899 PUSH2 0x1894 DUP5 PUSH2 0xF09 JUMP JUMPDEST PUSH2 0x187B JUMP JUMPDEST PUSH2 0xF09 JUMP JUMPDEST SWAP1 POP SWAP2 SWAP1 POP JUMP JUMPDEST PUSH0 DUP2 SWAP1 POP SWAP2 SWAP1 POP JUMP JUMPDEST PUSH2 0x18B7 DUP4 PUSH2 0x1884 JUMP JUMPDEST PUSH2 0x18CB PUSH2 0x18C3 DUP3 PUSH2 0x18A5 JUMP JUMPDEST DUP5 DUP5 SLOAD PUSH2 0x182A JUMP JUMPDEST DUP3 SSTORE POP POP POP POP JUMP JUMPDEST PUSH0 SWAP1 JUMP JUMPDEST PUSH2 0x18DF PUSH2 0x18D3 JUMP JUMPDEST PUSH2 0x18EA DUP2 DUP5 DUP5 PUSH2 0x18AE JUMP JUMPDEST POP POP POP JUMP JUMPDEST JUMPDEST DUP2 DUP2 LT ISZERO PUSH2 0x190D JUMPI PUSH2 0x1902 PUSH0 DUP3 PUSH2 0x18D7 JUMP JUMPDEST PUSH1 0x1 DUP2 ADD SWAP1 POP PUSH2 0x18F0 JUMP JUMPDEST POP POP JUMP JUMPDEST PUSH1 0x1F DUP3 GT ISZERO PUSH2 0x1952 JUMPI PUSH2 0x1923 DUP2 PUSH2 0x17FD JUMP JUMPDEST PUSH2 0x192C DUP5 PUSH2 0x180F JUMP JUMPDEST DUP2 ADD PUSH1 0x20 DUP6 LT ISZERO PUSH2 0x193B JUMPI DUP2 SWAP1 POP JUMPDEST PUSH2 0x194F PUSH2 0x1947 DUP6 PUSH2 0x180F JUMP JUMPDEST DUP4 ADD DUP3 PUSH2 0x18EF JUMP JUMPDEST POP POP JUMPDEST POP POP POP JUMP JUMPDEST PUSH0 DUP3 DUP3 SHR SWAP1 POP SWAP3 SWAP2 POP POP JUMP JUMPDEST PUSH0 PUSH2 0x1972 PUSH0 NOT DUP5 PUSH1 0x8 MUL PUSH2 0x1957 JUMP JUMPDEST NOT DUP1 DUP4 AND SWAP2 POP POP SWAP3 SWAP2 POP POP JUMP JUMPDEST PUSH0 PUSH2 0x198A DUP4 DUP4 PUSH2 0x1963 JUMP JUMPDEST SWAP2 POP DUP3 PUSH1 0x2 MUL DUP3 OR SWAP1 POP SWAP3 SWAP2 POP POP JUMP JUMPDEST PUSH2 0x19A3 DUP3 PUSH2 0x10DF JUMP JUMPDEST PUSH8 0xFFFFFFFFFFFFFFFF DUP2 GT ISZERO PUSH2 0x19BC JUMPI PUSH2 0x19BB PUSH2 0x1269 JUMP JUMPDEST JUMPDEST PUSH2 0x19C6 DUP3 SLOAD PUSH2 0x1698 JUMP JUMPDEST PUSH2 0x19D1 DUP3 DUP3 DUP6 PUSH2 0x1911 JUMP JUMPDEST PUSH0 PUSH1 0x20 SWAP1 POP PUSH1 0x1F DUP4 GT PUSH1 0x1 DUP2 EQ PUSH2 0x1A02 JUMPI PUSH0 DUP5 ISZERO PUSH2 0x19F0 JUMPI DUP3 DUP8 ADD MLOAD SWAP1 POP JUMPDEST PUSH2 0x19FA DUP6 DUP3 PUSH2 0x197F JUMP JUMPDEST DUP7 SSTORE POP PUSH2 0x1A61 JUMP JUMPDEST PUSH1 0x1F NOT DUP5 AND PUSH2 0x1A10 DUP7 PUSH2 0x17FD JUMP JUMPDEST PUSH0 JUMPDEST DUP3 DUP2 LT ISZERO PUSH2 0x1A37 JUMPI DUP5 DUP10 ADD MLOAD DUP3 SSTORE PUSH1 0x1 DUP3 ADD SWAP2 POP PUSH1 0x20 DUP6 ADD SWAP5 POP PUSH1 0x20 DUP2 ADD SWAP1 POP PUSH2 0x1A12 JUMP JUMPDEST DUP7 DUP4 LT ISZERO PUSH2 0x1A54 JUMPI DUP5 DUP10 ADD MLOAD PUSH2 0x1A50 PUSH1 0x1F DUP10 AND DUP3 PUSH2 0x1963 JUMP JUMPDEST DUP4 SSTORE POP JUMPDEST PUSH1 0x1 PUSH1 0x2 DUP9 MUL ADD DUP9 SSTORE POP POP POP JUMPDEST POP POP POP POP POP POP JUMP JUMPDEST PUSH0 PUSH1 0x60 DUP3 ADD SWAP1 POP PUSH2 0x1A7C PUSH0 DUP4 ADD DUP7 PUSH2 0x1032 JUMP JUMPDEST PUSH2 0x1A89 PUSH1 0x20 DUP4 ADD DUP6 PUSH2 0x1454 JUMP JUMPDEST DUP2 DUP2 SUB PUSH1 0x40 DUP4 ADD MSTORE PUSH2 0x1A9B DUP2 DUP5 PUSH2 0x1473 JUMP JUMPDEST SWAP1 POP SWAP5 SWAP4 POP POP POP POP JUMP INVALID LOG2 PUSH5 0x6970667358 0x22 SLT KECCAK256 SHR MSIZE 0xE2 BASEFEE 0xC1 PUSH17 0x46EAB7F5061C2859D360B0D3088250DEEF SDIV INVALID MSTORE PUSH3 0xA18C8D PUSH14 0x7E64736F6C634300081A00330000 "
		},
		"gasEstimates": {
			"creation": {
				"codeDepositCost": "1375000",
				"executionCost": "1429",
				"totalCost": "1376429"
			},
			"external": {
				"checkUserLIkeTweetStatus(uint256,address)": "5274",
				"createTweet(string)": "infinite",
				"getAllTweets()": "infinite",
				"getTweet(uint256)": "infinite",
				"likeTweet(uint256)": "infinite",
				"singleUserTweets(address)": "infinite",
				"tweetCounter()": "2491",
				"tweets(uint256)": "infinite",
				"unlikeTweet(uint256)": "infinite",
				"userLikedTweet(uint256,address)": "3094",
				"userTweets(address,uint256)": "infinite"
			}
		},
		"methodIdentifiers": {
			"checkUserLIkeTweetStatus(uint256,address)": "0050a719",
			"createTweet(string)": "7c9cd2bc",
			"getAllTweets()": "53256135",
			"getTweet(uint256)": "c3ad5ecb",
			"likeTweet(uint256)": "5ffc6ceb",
			"singleUserTweets(address)": "f6d148d5",
			"tweetCounter()": "22b13ac8",
			"tweets(uint256)": "e8d857b0",
			"unlikeTweet(uint256)": "1d86e904",
			"userLikedTweet(uint256,address)": "06d1bdb4",
			"userTweets(address,uint256)": "2e06f347"
		}
	},
	"abi": [
		{
			"anonymous": false,
			"inputs": [
				{
					"indexed": false,
					"internalType": "uint256",
					"name": "tweetId",
					"type": "uint256"
				},
				{
					"indexed": false,
					"internalType": "address",
					"name": "author",
					"type": "address"
				},
				{
					"indexed": false,
					"internalType": "string",
					"name": "content",
					"type": "string"
				}
			],
			"name": "TweetCreated",
			"type": "event"
		},
		{
			"anonymous": false,
			"inputs": [
				{
					"indexed": false,
					"internalType": "uint256",
					"name": "tweetId",
					"type": "uint256"
				},
				{
					"indexed": false,
					"internalType": "address",
					"name": "liker",
					"type": "address"
				}
			],
			"name": "TweetLiked",
			"type": "event"
		},
		{
			"anonymous": false,
			"inputs": [
				{
					"indexed": false,
					"internalType": "uint256",
					"name": "tweetId",
					"type": "uint256"
				},
				{
					"indexed": false,
					"internalType": "address",
					"name": "unliker",
					"type": "address"
				}
			],
			"name": "TweetUnliked",
			"type": "event"
		},
		{
			"inputs": [
				{
					"internalType": "uint256",
					"name": "_tweetId",
					"type": "uint256"
				},
				{
					"internalType": "address",
					"name": "_user",
					"type": "address"
				}
			],
			"name": "checkUserLIkeTweetStatus",
			"outputs": [
				{
					"internalType": "bool",
					"name": "",
					"type": "bool"
				}
			],
			"stateMutability": "view",
			"type": "function"
		},
		{
			"inputs": [
				{
					"internalType": "string",
					"name": "_content",
					"type": "string"
				}
			],
			"name": "createTweet",
			"outputs": [],
			"stateMutability": "nonpayable",
			"type": "function"
		},
		{
			"inputs": [],
			"name": "getAllTweets",
			"outputs": [
				{
					"components": [
						{
							"internalType": "uint256",
							"name": "id",
							"type": "uint256"
						},
						{
							"internalType": "address",
							"name": "author",
							"type": "address"
						},
						{
							"internalType": "string",
							"name": "content",
							"type": "string"
						},
						{
							"internalType": "uint256",
							"name": "likeCount",
							"type": "uint256"
						}
					],
					"internalType": "struct Twitter.Tweet[]",
					"name": "",
					"type": "tuple[]"
				}
			],
			"stateMutability": "view",
			"type": "function"
		},
		{
			"inputs": [
				{
					"internalType": "uint256",
					"name": "_tweetId",
					"type": "uint256"
				}
			],
			"name": "getTweet",
			"outputs": [
				{
					"components": [
						{
							"internalType": "uint256",
							"name": "id",
							"type": "uint256"
						},
						{
							"internalType": "address",
							"name": "author",
							"type": "address"
						},
						{
							"internalType": "string",
							"name": "content",
							"type": "string"
						},
						{
							"internalType": "uint256",
							"name": "likeCount",
							"type": "uint256"
						}
					],
					"internalType": "struct Twitter.Tweet",
					"name": "",
					"type": "tuple"
				}
			],
			"stateMutability": "view",
			"type": "function"
		},
		{
			"inputs": [
				{
					"internalType": "uint256",
					"name": "_tweetId",
					"type": "uint256"
				}
			],
			"name": "likeTweet",
			"outputs": [],
			"stateMutability": "nonpayable",
			"type": "function"
		},
		{
			"inputs": [
				{
					"internalType": "address",
					"name": "_user",
					"type": "address"
				}
			],
			"name": "singleUserTweets",
			"outputs": [
				{
					"components": [
						{
							"internalType": "uint256",
							"name": "id",
							"type": "uint256"
						},
						{
							"internalType": "address",
							"name": "author",
							"type": "address"
						},
						{
							"internalType": "string",
							"name": "content",
							"type": "string"
						},
						{
							"internalType": "uint256",
							"name": "likeCount",
							"type": "uint256"
						}
					],
					"internalType": "struct Twitter.Tweet[]",
					"name": "",
					"type": "tuple[]"
				}
			],
			"stateMutability": "view",
			"type": "function"
		},
		{
			"inputs": [],
			"name": "tweetCounter",
			"outputs": [
				{
					"internalType": "uint256",
					"name": "",
					"type": "uint256"
				}
			],
			"stateMutability": "view",
			"type": "function"
		},
		{
			"inputs": [
				{
					"internalType": "uint256",
					"name": "",
					"type": "uint256"
				}
			],
			"name": "tweets",
			"outputs": [
				{
					"internalType": "uint256",
					"name": "id",
					"type": "uint256"
				},
				{
					"internalType": "address",
					"name": "author",
					"type": "address"
				},
				{
					"internalType": "string",
					"name": "content",
					"type": "string"
				},
				{
					"internalType": "uint256",
					"name": "likeCount",
					"type": "uint256"
				}
			],
			"stateMutability": "view",
			"type": "function"
		},
		{
			"inputs": [
				{
					"internalType": "uint256",
					"name": "_tweetId",
					"type": "uint256"
				}
			],
			"name": "unlikeTweet",
			"outputs": [],
			"stateMutability": "nonpayable",
			"type": "function"
		},
		{
			"inputs": [
				{
					"internalType": "uint256",
					"name": "",
					"type": "uint256"
				},
				{
					"internalType": "address",
					"name": "",
					"type": "address"
				}
			],
			"name": "userLikedTweet",
			"outputs": [
				{
					"internalType": "bool",
					"name": "",
					"type": "bool"
				}
			],
			"stateMutability": "view",
			"type": "function"
		},
		{
			"inputs": [
				{
					"internalType": "address",
					"name": "",
					"type": "address"
				},
				{
					"internalType": "uint256",
					"name": "",
					"type": "uint256"
				}
			],
			"name": "userTweets",
			"outputs": [
				{
					"internalType": "uint256",
					"name": "",
					"type": "uint256"
				}
			],
			"stateMutability": "view",
			"type": "function"
		}
	]
}